{
	"_format": "hh-sol-artifact-1",
	"contractName": "MintProductNFT",
	"sourceName": "contracts/MintProductNFT.sol",
	"abi": [
		{
			"inputs": [
				{
					"internalType": "string",
					"name": "name",
					"type": "string"
				},
				{
					"internalType": "string",
					"name": "symbol",
					"type": "string"
				}
			],
			"stateMutability": "nonpayable",
			"type": "constructor"
		},
		{
			"anonymous": false,
			"inputs": [
				{
					"indexed": true,
					"internalType": "address",
					"name": "owner",
					"type": "address"
				},
				{
					"indexed": true,
					"internalType": "address",
					"name": "approved",
					"type": "address"
				},
				{
					"indexed": true,
					"internalType": "uint256",
					"name": "tokenId",
					"type": "uint256"
				}
			],
			"name": "Approval",
			"type": "event"
		},
		{
			"anonymous": false,
			"inputs": [
				{
					"indexed": true,
					"internalType": "address",
					"name": "owner",
					"type": "address"
				},
				{
					"indexed": true,
					"internalType": "address",
					"name": "operator",
					"type": "address"
				},
				{
					"indexed": false,
					"internalType": "bool",
					"name": "approved",
					"type": "bool"
				}
			],
			"name": "ApprovalForAll",
			"type": "event"
		},
		{
			"anonymous": false,
			"inputs": [
				{
					"indexed": true,
					"internalType": "address",
					"name": "from",
					"type": "address"
				},
				{
					"indexed": true,
					"internalType": "address",
					"name": "to",
					"type": "address"
				},
				{
					"indexed": true,
					"internalType": "uint256",
					"name": "tokenId",
					"type": "uint256"
				}
			],
			"name": "Transfer",
			"type": "event"
		},
		{
			"inputs": [
				{
					"internalType": "address",
					"name": "to",
					"type": "address"
				},
				{
					"internalType": "uint256",
					"name": "tokenId",
					"type": "uint256"
				}
			],
			"name": "approve",
			"outputs": [],
			"stateMutability": "nonpayable",
			"type": "function"
		},
		{
			"inputs": [
				{
					"internalType": "address",
					"name": "owner",
					"type": "address"
				}
			],
			"name": "balanceOf",
			"outputs": [
				{
					"internalType": "uint256",
					"name": "",
					"type": "uint256"
				}
			],
			"stateMutability": "view",
			"type": "function"
		},
		{
			"inputs": [
				{
					"internalType": "uint256",
					"name": "tokenId",
					"type": "uint256"
				}
			],
			"name": "getApproved",
			"outputs": [
				{
					"internalType": "address",
					"name": "",
					"type": "address"
				}
			],
			"stateMutability": "view",
			"type": "function"
		},
		{
			"inputs": [
				{
					"internalType": "uint256",
					"name": "tokenId",
					"type": "uint256"
				}
			],
			"name": "getTokenURI",
			"outputs": [
				{
					"internalType": "string",
					"name": "",
					"type": "string"
				}
			],
			"stateMutability": "view",
			"type": "function"
		},
		{
			"inputs": [
				{
					"internalType": "address",
					"name": "owner",
					"type": "address"
				},
				{
					"internalType": "address",
					"name": "operator",
					"type": "address"
				}
			],
			"name": "isApprovedForAll",
			"outputs": [
				{
					"internalType": "bool",
					"name": "",
					"type": "bool"
				}
			],
			"stateMutability": "view",
			"type": "function"
		},
		{
			"inputs": [
				{
					"internalType": "address",
					"name": "to",
					"type": "address"
				},
				{
					"internalType": "string",
					"name": "uri",
					"type": "string"
				}
			],
			"name": "mintNFT",
			"outputs": [],
			"stateMutability": "nonpayable",
			"type": "function"
		},
		{
			"inputs": [],
			"name": "name",
			"outputs": [
				{
					"internalType": "string",
					"name": "",
					"type": "string"
				}
			],
			"stateMutability": "view",
			"type": "function"
		},
		{
			"inputs": [
				{
					"internalType": "uint256",
					"name": "tokenId",
					"type": "uint256"
				}
			],
			"name": "ownerOf",
			"outputs": [
				{
					"internalType": "address",
					"name": "",
					"type": "address"
				}
			],
			"stateMutability": "view",
			"type": "function"
		},
		{
			"inputs": [
				{
					"internalType": "address",
					"name": "from",
					"type": "address"
				},
				{
					"internalType": "address",
					"name": "to",
					"type": "address"
				},
				{
					"internalType": "uint256",
					"name": "tokenId",
					"type": "uint256"
				}
			],
			"name": "safeTransferFrom",
			"outputs": [],
			"stateMutability": "nonpayable",
			"type": "function"
		},
		{
			"inputs": [
				{
					"internalType": "address",
					"name": "from",
					"type": "address"
				},
				{
					"internalType": "address",
					"name": "to",
					"type": "address"
				},
				{
					"internalType": "uint256",
					"name": "tokenId",
					"type": "uint256"
				},
				{
					"internalType": "bytes",
					"name": "data",
					"type": "bytes"
				}
			],
			"name": "safeTransferFrom",
			"outputs": [],
			"stateMutability": "nonpayable",
			"type": "function"
		},
		{
			"inputs": [
				{
					"internalType": "address",
					"name": "operator",
					"type": "address"
				},
				{
					"internalType": "bool",
					"name": "approved",
					"type": "bool"
				}
			],
			"name": "setApprovalForAll",
			"outputs": [],
			"stateMutability": "nonpayable",
			"type": "function"
		},
		{
			"inputs": [
				{
					"internalType": "bytes4",
					"name": "interfaceId",
					"type": "bytes4"
				}
			],
			"name": "supportsInterface",
			"outputs": [
				{
					"internalType": "bool",
					"name": "",
					"type": "bool"
				}
			],
			"stateMutability": "view",
			"type": "function"
		},
		{
			"inputs": [],
			"name": "symbol",
			"outputs": [
				{
					"internalType": "string",
					"name": "",
					"type": "string"
				}
			],
			"stateMutability": "view",
			"type": "function"
		},
		{
			"inputs": [
				{
					"internalType": "uint256",
					"name": "index",
					"type": "uint256"
				}
			],
			"name": "tokenByIndex",
			"outputs": [
				{
					"internalType": "uint256",
					"name": "",
					"type": "uint256"
				}
			],
			"stateMutability": "view",
			"type": "function"
		},
		{
			"inputs": [
				{
					"internalType": "address",
					"name": "owner",
					"type": "address"
				},
				{
					"internalType": "uint256",
					"name": "index",
					"type": "uint256"
				}
			],
			"name": "tokenOfOwnerByIndex",
			"outputs": [
				{
					"internalType": "uint256",
					"name": "",
					"type": "uint256"
				}
			],
			"stateMutability": "view",
			"type": "function"
		},
		{
			"inputs": [
				{
					"internalType": "uint256",
					"name": "tokenId",
					"type": "uint256"
				}
			],
			"name": "tokenURI",
			"outputs": [
				{
					"internalType": "string",
					"name": "",
					"type": "string"
				}
			],
			"stateMutability": "view",
			"type": "function"
		},
		{
			"inputs": [],
			"name": "totalSupply",
			"outputs": [
				{
					"internalType": "uint256",
					"name": "",
					"type": "uint256"
				}
			],
			"stateMutability": "view",
			"type": "function"
		},
		{
			"inputs": [
				{
					"internalType": "address",
					"name": "to",
					"type": "address"
				},
				{
					"internalType": "uint256",
					"name": "tokenId",
					"type": "uint256"
				}
			],
			"name": "transfer",
			"outputs": [],
			"stateMutability": "nonpayable",
			"type": "function"
		},
		{
			"inputs": [
				{
					"internalType": "address",
					"name": "from",
					"type": "address"
				},
				{
					"internalType": "address",
					"name": "to",
					"type": "address"
				},
				{
					"internalType": "uint256",
					"name": "tokenId",
					"type": "uint256"
				}
			],
			"name": "transferFrom",
			"outputs": [],
			"stateMutability": "nonpayable",
			"type": "function"
		}
	],
	"bytecode": "0x60806040523480156200001157600080fd5b5060405162003b7438038062003b7483398181016040528101906200003791906200023b565b818181600090816200004a91906200050b565b5080600190816200005c91906200050b565b50505033600c60006101000a81548173ffffffffffffffffffffffffffffffffffffffff021916908373ffffffffffffffffffffffffffffffffffffffff1602179055505050620005f2565b6000604051905090565b600080fd5b600080fd5b600080fd5b600080fd5b6000601f19601f8301169050919050565b7f4e487b7100000000000000000000000000000000000000000000000000000000600052604160045260246000fd5b6200011182620000c6565b810181811067ffffffffffffffff82111715620001335762000132620000d7565b5b80604052505050565b600062000148620000a8565b905062000156828262000106565b919050565b600067ffffffffffffffff821115620001795762000178620000d7565b5b6200018482620000c6565b9050602081019050919050565b60005b83811015620001b157808201518184015260208101905062000194565b60008484015250505050565b6000620001d4620001ce846200015b565b6200013c565b905082815260208101848484011115620001f357620001f2620000c1565b5b6200020084828562000191565b509392505050565b600082601f83011262000220576200021f620000bc565b5b815162000232848260208601620001bd565b91505092915050565b60008060408385031215620002555762000254620000b2565b5b600083015167ffffffffffffffff811115620002765762000275620000b7565b5b620002848582860162000208565b925050602083015167ffffffffffffffff811115620002a857620002a7620000b7565b5b620002b68582860162000208565b9150509250929050565b600081519050919050565b7f4e487b7100000000000000000000000000000000000000000000000000000000600052602260045260246000fd5b600060028204905060018216806200031357607f821691505b602082108103620003295762000328620002cb565b5b50919050565b60008190508160005260206000209050919050565b60006020601f8301049050919050565b600082821b905092915050565b600060088302620003937fffffffffffffffffffffffffffffffffffffffffffffffffffffffffffffffff8262000354565b6200039f868362000354565b95508019841693508086168417925050509392505050565b6000819050919050565b6000819050919050565b6000620003ec620003e6620003e084620003b7565b620003c1565b620003b7565b9050919050565b6000819050919050565b6200040883620003cb565b620004206200041782620003f3565b84845462000361565b825550505050565b600090565b6200043762000428565b62000444818484620003fd565b505050565b5b818110156200046c57620004606000826200042d565b6001810190506200044a565b5050565b601f821115620004bb5762000485816200032f565b620004908462000344565b81016020851015620004a0578190505b620004b8620004af8562000344565b83018262000449565b50505b505050565b600082821c905092915050565b6000620004e060001984600802620004c0565b1980831691505092915050565b6000620004fb8383620004cd565b9150826002028217905092915050565b6200051682620002c0565b67ffffffffffffffff811115620005325762000531620000d7565b5b6200053e8254620002fa565b6200054b82828562000470565b600060209050601f8311600181146200058357600084156200056e578287015190505b6200057a8582620004ed565b865550620005ea565b601f19841662000593866200032f565b60005b82811015620005bd5784890151825560018201915060208501945060208101905062000596565b86831015620005dd5784890151620005d9601f891682620004cd565b8355505b6001600288020188555050505b505050505050565b61357280620006026000396000f3fe608060405234801561001057600080fd5b50600436106101215760003560e01c80634f6ccce7116100ad578063a9059cbb11610071578063a9059cbb14610340578063b88d4fde1461035c578063c87b56dd14610378578063e985e9c5146103a8578063eacabe14146103d857610121565b80634f6ccce7146102765780636352211e146102a657806370a08231146102d657806395d89b4114610306578063a22cb4651461032457610121565b806318160ddd116100f457806318160ddd146101c057806323b872dd146101de5780632f745c59146101fa5780633bb3a24d1461022a57806342842e0e1461025a57610121565b806301ffc9a71461012657806306fdde0314610156578063081812fc14610174578063095ea7b3146101a4575b600080fd5b610140600480360381019061013b919061217e565b6103f4565b60405161014d91906121c6565b60405180910390f35b61015e610406565b60405161016b9190612271565b60405180910390f35b61018e600480360381019061018991906122c9565b610498565b60405161019b9190612337565b60405180910390f35b6101be60048036038101906101b9919061237e565b6104de565b005b6101c86105f5565b6040516101d591906123cd565b60405180910390f35b6101f860048036038101906101f391906123e8565b610602565b005b610214600480360381019061020f919061237e565b610662565b60405161022191906123cd565b60405180910390f35b610244600480360381019061023f91906122c9565b610707565b6040516102519190612271565b60405180910390f35b610274600480360381019061026f91906123e8565b610719565b005b610290600480360381019061028b91906122c9565b610739565b60405161029d91906123cd565b60405180910390f35b6102c060048036038101906102bb91906122c9565b6107aa565b6040516102cd9190612337565b60405180910390f35b6102f060048036038101906102eb919061243b565b610830565b6040516102fd91906123cd565b60405180910390f35b61030e6108e7565b60405161031b9190612271565b60405180910390f35b61033e60048036038101906103399190612494565b610979565b005b61035a6004803603810190610355919061237e565b61098f565b005b61037660048036038101906103719190612609565b61099e565b005b610392600480360381019061038d91906122c9565b610a00565b60405161039f9190612271565b60405180910390f35b6103c260048036038101906103bd919061268c565b610a12565b6040516103cf91906121c6565b60405180910390f35b6103f260048036038101906103ed919061276d565b610aa6565b005b60006103ff82610b67565b9050919050565b606060008054610415906127f8565b80601f0160208091040260200160405190810160405280929190818152602001828054610441906127f8565b801561048e5780601f106104635761010080835404028352916020019161048e565b820191906000526020600020905b81548152906001019060200180831161047157829003601f168201915b5050505050905090565b60006104a382610be1565b6004600083815260200190815260200160002060009054906101000a900473ffffffffffffffffffffffffffffffffffffffff169050919050565b60006104e9826107aa565b90508073ffffffffffffffffffffffffffffffffffffffff168373ffffffffffffffffffffffffffffffffffffffff1603610559576040517f08c379a00000000000000000000000000000000000000000000000000000000081526004016105509061289b565b60405180910390fd5b8073ffffffffffffffffffffffffffffffffffffffff16610578610c2c565b73ffffffffffffffffffffffffffffffffffffffff1614806105a757506105a6816105a1610c2c565b610a12565b5b6105e6576040517f08c379a00000000000000000000000000000000000000000000000000000000081526004016105dd9061292d565b60405180910390fd5b6105f08383610c34565b505050565b6000600980549050905090565b61061361060d610c2c565b82610ced565b610652576040517f08c379a0000000000000000000000000000000000000000000000000000000008152600401610649906129bf565b60405180910390fd5b61065d838383610d82565b505050565b600061066d83610830565b82106106ae576040517f08c379a00000000000000000000000000000000000000000000000000000000081526004016106a590612a51565b60405180910390fd5b600760008473ffffffffffffffffffffffffffffffffffffffff1673ffffffffffffffffffffffffffffffffffffffff168152602001908152602001600020600083815260200190815260200160002054905092915050565b606061071282610a00565b9050919050565b6107348383836040518060200160405280600081525061099e565b505050565b60006107436105f5565b8210610784576040517f08c379a000000000000000000000000000000000000000000000000000000000815260040161077b90612ae3565b60405180910390fd5b6009828154811061079857610797612b03565b5b90600052602060002001549050919050565b6000806107b68361107b565b9050600073ffffffffffffffffffffffffffffffffffffffff168173ffffffffffffffffffffffffffffffffffffffff1603610827576040517f08c379a000000000000000000000000000000000000000000000000000000000815260040161081e90612b7e565b60405180910390fd5b80915050919050565b60008073ffffffffffffffffffffffffffffffffffffffff168273ffffffffffffffffffffffffffffffffffffffff16036108a0576040517f08c379a000000000000000000000000000000000000000000000000000000000815260040161089790612c10565b60405180910390fd5b600360008373ffffffffffffffffffffffffffffffffffffffff1673ffffffffffffffffffffffffffffffffffffffff168152602001908152602001600020549050919050565b6060600180546108f6906127f8565b80601f0160208091040260200160405190810160405280929190818152602001828054610922906127f8565b801561096f5780601f106109445761010080835404028352916020019161096f565b820191906000526020600020905b81548152906001019060200180831161095257829003601f168201915b5050505050905090565b61098b610984610c2c565b83836110b8565b5050565b61099a338383610719565b5050565b6109af6109a9610c2c565b83610ced565b6109ee576040517f08c379a00000000000000000000000000000000000000000000000000000000081526004016109e5906129bf565b60405180910390fd5b6109fa84848484611224565b50505050565b6060610a0b82611280565b9050919050565b6000600560008473ffffffffffffffffffffffffffffffffffffffff1673ffffffffffffffffffffffffffffffffffffffff16815260200190815260200160002060008373ffffffffffffffffffffffffffffffffffffffff1673ffffffffffffffffffffffffffffffffffffffff16815260200190815260200160002060009054906101000a900460ff16905092915050565b600c60009054906101000a900473ffffffffffffffffffffffffffffffffffffffff1673ffffffffffffffffffffffffffffffffffffffff163373ffffffffffffffffffffffffffffffffffffffff1614610b36576040517f08c379a0000000000000000000000000000000000000000000000000000000008152600401610b2d90612c7c565b60405180910390fd5b6000610b42600b611392565b9050610b4e600b6113a0565b610b5883826113b6565b610b6281836113d4565b505050565b60007f780e9d63000000000000000000000000000000000000000000000000000000007bffffffffffffffffffffffffffffffffffffffffffffffffffffffff1916827bffffffffffffffffffffffffffffffffffffffffffffffffffffffff19161480610bda5750610bd982611441565b5b9050919050565b610bea81611523565b610c29576040517f08c379a0000000000000000000000000000000000000000000000000000000008152600401610c2090612b7e565b60405180910390fd5b50565b600033905090565b816004600083815260200190815260200160002060006101000a81548173ffffffffffffffffffffffffffffffffffffffff021916908373ffffffffffffffffffffffffffffffffffffffff160217905550808273ffffffffffffffffffffffffffffffffffffffff16610ca7836107aa565b73ffffffffffffffffffffffffffffffffffffffff167f8c5be1e5ebec7d5bd14f71427d1e84f3dd0314c0f7b2291e5b200ac8c7c3b92560405160405180910390a45050565b600080610cf9836107aa565b90508073ffffffffffffffffffffffffffffffffffffffff168473ffffffffffffffffffffffffffffffffffffffff161480610d3b5750610d3a8185610a12565b5b80610d7957508373ffffffffffffffffffffffffffffffffffffffff16610d6184610498565b73ffffffffffffffffffffffffffffffffffffffff16145b91505092915050565b8273ffffffffffffffffffffffffffffffffffffffff16610da2826107aa565b73ffffffffffffffffffffffffffffffffffffffff1614610df8576040517f08c379a0000000000000000000000000000000000000000000000000000000008152600401610def90612d0e565b60405180910390fd5b600073ffffffffffffffffffffffffffffffffffffffff168273ffffffffffffffffffffffffffffffffffffffff1603610e67576040517f08c379a0000000000000000000000000000000000000000000000000000000008152600401610e5e90612da0565b60405180910390fd5b610e748383836001611564565b8273ffffffffffffffffffffffffffffffffffffffff16610e94826107aa565b73ffffffffffffffffffffffffffffffffffffffff1614610eea576040517f08c379a0000000000000000000000000000000000000000000000000000000008152600401610ee190612d0e565b60405180910390fd5b6004600082815260200190815260200160002060006101000a81549073ffffffffffffffffffffffffffffffffffffffff02191690556001600360008573ffffffffffffffffffffffffffffffffffffffff1673ffffffffffffffffffffffffffffffffffffffff168152602001908152602001600020600082825403925050819055506001600360008473ffffffffffffffffffffffffffffffffffffffff1673ffffffffffffffffffffffffffffffffffffffff16815260200190815260200160002060008282540192505081905550816002600083815260200190815260200160002060006101000a81548173ffffffffffffffffffffffffffffffffffffffff021916908373ffffffffffffffffffffffffffffffffffffffff160217905550808273ffffffffffffffffffffffffffffffffffffffff168473ffffffffffffffffffffffffffffffffffffffff167fddf252ad1be2c89b69c2b068fc378daa952ba7f163c4a11628f55a4df523b3ef60405160405180910390a46110768383836001611576565b505050565b60006002600083815260200190815260200160002060009054906101000a900473ffffffffffffffffffffffffffffffffffffffff169050919050565b8173ffffffffffffffffffffffffffffffffffffffff168373ffffffffffffffffffffffffffffffffffffffff1603611126576040517f08c379a000000000000000000000000000000000000000000000000000000000815260040161111d90612e0c565b60405180910390fd5b80600560008573ffffffffffffffffffffffffffffffffffffffff1673ffffffffffffffffffffffffffffffffffffffff16815260200190815260200160002060008473ffffffffffffffffffffffffffffffffffffffff1673ffffffffffffffffffffffffffffffffffffffff16815260200190815260200160002060006101000a81548160ff0219169083151502179055508173ffffffffffffffffffffffffffffffffffffffff168373ffffffffffffffffffffffffffffffffffffffff167f17307eab39ab6107e8899845ad3d59bd9653f200f220920489ca2b5937696c318360405161121791906121c6565b60405180910390a3505050565b61122f848484610d82565b61123b8484848461157c565b61127a576040517f08c379a000000000000000000000000000000000000000000000000000000000815260040161127190612e9e565b60405180910390fd5b50505050565b606061128b82610be1565b60006006600084815260200190815260200160002080546112ab906127f8565b80601f01602080910402602001604051908101604052809291908181526020018280546112d7906127f8565b80156113245780601f106112f957610100808354040283529160200191611324565b820191906000526020600020905b81548152906001019060200180831161130757829003601f168201915b505050505090506000611335611703565b9050600081510361134a57819250505061138d565b60008251111561137f578082604051602001611367929190612efa565b6040516020818303038152906040529250505061138d565b6113888461171a565b925050505b919050565b600081600001549050919050565b6001816000016000828254019250508190555050565b6113d0828260405180602001604052806000815250611782565b5050565b6113dd82611523565b61141c576040517f08c379a000000000000000000000000000000000000000000000000000000000815260040161141390612f90565b60405180910390fd5b8060066000848152602001908152602001600020908161143c919061315c565b505050565b60007f80ac58cd000000000000000000000000000000000000000000000000000000007bffffffffffffffffffffffffffffffffffffffffffffffffffffffff1916827bffffffffffffffffffffffffffffffffffffffffffffffffffffffff1916148061150c57507f5b5e139f000000000000000000000000000000000000000000000000000000007bffffffffffffffffffffffffffffffffffffffffffffffffffffffff1916827bffffffffffffffffffffffffffffffffffffffffffffffffffffffff1916145b8061151c575061151b826117dd565b5b9050919050565b60008073ffffffffffffffffffffffffffffffffffffffff166115458361107b565b73ffffffffffffffffffffffffffffffffffffffff1614159050919050565b61157084848484611847565b50505050565b50505050565b600061159d8473ffffffffffffffffffffffffffffffffffffffff166119a5565b156116f6578373ffffffffffffffffffffffffffffffffffffffff1663150b7a026115c6610c2c565b8786866040518563ffffffff1660e01b81526004016115e89493929190613283565b6020604051808303816000875af192505050801561162457506040513d601f19601f8201168201806040525081019061162191906132e4565b60015b6116a6573d8060008114611654576040519150601f19603f3d011682016040523d82523d6000602084013e611659565b606091505b50600081510361169e576040517f08c379a000000000000000000000000000000000000000000000000000000000815260040161169590612e9e565b60405180910390fd5b805181602001fd5b63150b7a0260e01b7bffffffffffffffffffffffffffffffffffffffffffffffffffffffff1916817bffffffffffffffffffffffffffffffffffffffffffffffffffffffff1916149150506116fb565b600190505b949350505050565b606060405180602001604052806000815250905090565b606061172582610be1565b600061172f611703565b9050600081511161174f576040518060200160405280600081525061177a565b80611759846119c8565b60405160200161176a929190612efa565b6040516020818303038152906040525b915050919050565b61178c8383611a96565b611799600084848461157c565b6117d8576040517f08c379a00000000000000000000000000000000000000000000000000000000081526004016117cf90612e9e565b60405180910390fd5b505050565b60007f01ffc9a7000000000000000000000000000000000000000000000000000000007bffffffffffffffffffffffffffffffffffffffffffffffffffffffff1916827bffffffffffffffffffffffffffffffffffffffffffffffffffffffff1916149050919050565b61185384848484611cb3565b6001811115611897576040517f08c379a000000000000000000000000000000000000000000000000000000000815260040161188e90613383565b60405180910390fd5b6000829050600073ffffffffffffffffffffffffffffffffffffffff168573ffffffffffffffffffffffffffffffffffffffff16036118de576118d981611cb9565b61191d565b8373ffffffffffffffffffffffffffffffffffffffff168573ffffffffffffffffffffffffffffffffffffffff161461191c5761191b8582611d02565b5b5b600073ffffffffffffffffffffffffffffffffffffffff168473ffffffffffffffffffffffffffffffffffffffff160361195f5761195a81611e6f565b61199e565b8473ffffffffffffffffffffffffffffffffffffffff168473ffffffffffffffffffffffffffffffffffffffff161461199d5761199c8482611f40565b5b5b5050505050565b6000808273ffffffffffffffffffffffffffffffffffffffff163b119050919050565b6060600060016119d784611fbf565b01905060008167ffffffffffffffff8111156119f6576119f56124de565b5b6040519080825280601f01601f191660200182016040528015611a285781602001600182028036833780820191505090505b509050600082602001820190505b600115611a8b578080600190039150507f3031323334353637383961626364656600000000000000000000000000000000600a86061a8153600a8581611a7f57611a7e6133a3565b5b04945060008503611a36575b819350505050919050565b600073ffffffffffffffffffffffffffffffffffffffff168273ffffffffffffffffffffffffffffffffffffffff1603611b05576040517f08c379a0000000000000000000000000000000000000000000000000000000008152600401611afc9061341e565b60405180910390fd5b611b0e81611523565b15611b4e576040517f08c379a0000000000000000000000000000000000000000000000000000000008152600401611b459061348a565b60405180910390fd5b611b5c600083836001611564565b611b6581611523565b15611ba5576040517f08c379a0000000000000000000000000000000000000000000000000000000008152600401611b9c9061348a565b60405180910390fd5b6001600360008473ffffffffffffffffffffffffffffffffffffffff1673ffffffffffffffffffffffffffffffffffffffff16815260200190815260200160002060008282540192505081905550816002600083815260200190815260200160002060006101000a81548173ffffffffffffffffffffffffffffffffffffffff021916908373ffffffffffffffffffffffffffffffffffffffff160217905550808273ffffffffffffffffffffffffffffffffffffffff16600073ffffffffffffffffffffffffffffffffffffffff167fddf252ad1be2c89b69c2b068fc378daa952ba7f163c4a11628f55a4df523b3ef60405160405180910390a4611caf600083836001611576565b5050565b50505050565b600980549050600a600083815260200190815260200160002081905550600981908060018154018082558091505060019003906000526020600020016000909190919091505550565b60006001611d0f84610830565b611d1991906134d9565b9050600060086000848152602001908152602001600020549050818114611dfe576000600760008673ffffffffffffffffffffffffffffffffffffffff1673ffffffffffffffffffffffffffffffffffffffff168152602001908152602001600020600084815260200190815260200160002054905080600760008773ffffffffffffffffffffffffffffffffffffffff1673ffffffffffffffffffffffffffffffffffffffff168152602001908152602001600020600084815260200190815260200160002081905550816008600083815260200190815260200160002081905550505b6008600084815260200190815260200160002060009055600760008573ffffffffffffffffffffffffffffffffffffffff1673ffffffffffffffffffffffffffffffffffffffff16815260200190815260200160002060008381526020019081526020016000206000905550505050565b60006001600980549050611e8391906134d9565b90506000600a6000848152602001908152602001600020549050600060098381548110611eb357611eb2612b03565b5b906000526020600020015490508060098381548110611ed557611ed4612b03565b5b906000526020600020018190555081600a600083815260200190815260200160002081905550600a6000858152602001908152602001600020600090556009805480611f2457611f2361350d565b5b6001900381819060005260206000200160009055905550505050565b6000611f4b83610830565b905081600760008573ffffffffffffffffffffffffffffffffffffffff1673ffffffffffffffffffffffffffffffffffffffff168152602001908152602001600020600083815260200190815260200160002081905550806008600084815260200190815260200160002081905550505050565b600080600090507a184f03e93ff9f4daa797ed6e38ed64bf6a1f010000000000000000831061201d577a184f03e93ff9f4daa797ed6e38ed64bf6a1f0100000000000000008381612013576120126133a3565b5b0492506040810190505b6d04ee2d6d415b85acef8100000000831061205a576d04ee2d6d415b85acef810000000083816120505761204f6133a3565b5b0492506020810190505b662386f26fc10000831061208957662386f26fc10000838161207f5761207e6133a3565b5b0492506010810190505b6305f5e10083106120b2576305f5e10083816120a8576120a76133a3565b5b0492506008810190505b61271083106120d75761271083816120cd576120cc6133a3565b5b0492506004810190505b606483106120fa57606483816120f0576120ef6133a3565b5b0492506002810190505b600a8310612109576001810190505b80915050919050565b6000604051905090565b600080fd5b600080fd5b60007fffffffff0000000000000000000000000000000000000000000000000000000082169050919050565b61215b81612126565b811461216657600080fd5b50565b60008135905061217881612152565b92915050565b6000602082840312156121945761219361211c565b5b60006121a284828501612169565b91505092915050565b60008115159050919050565b6121c0816121ab565b82525050565b60006020820190506121db60008301846121b7565b92915050565b600081519050919050565b600082825260208201905092915050565b60005b8381101561221b578082015181840152602081019050612200565b60008484015250505050565b6000601f19601f8301169050919050565b6000612243826121e1565b61224d81856121ec565b935061225d8185602086016121fd565b61226681612227565b840191505092915050565b6000602082019050818103600083015261228b8184612238565b905092915050565b6000819050919050565b6122a681612293565b81146122b157600080fd5b50565b6000813590506122c38161229d565b92915050565b6000602082840312156122df576122de61211c565b5b60006122ed848285016122b4565b91505092915050565b600073ffffffffffffffffffffffffffffffffffffffff82169050919050565b6000612321826122f6565b9050919050565b61233181612316565b82525050565b600060208201905061234c6000830184612328565b92915050565b61235b81612316565b811461236657600080fd5b50565b60008135905061237881612352565b92915050565b600080604083850312156123955761239461211c565b5b60006123a385828601612369565b92505060206123b4858286016122b4565b9150509250929050565b6123c781612293565b82525050565b60006020820190506123e260008301846123be565b92915050565b6000806000606084860312156124015761240061211c565b5b600061240f86828701612369565b935050602061242086828701612369565b9250506040612431868287016122b4565b9150509250925092565b6000602082840312156124515761245061211c565b5b600061245f84828501612369565b91505092915050565b612471816121ab565b811461247c57600080fd5b50565b60008135905061248e81612468565b92915050565b600080604083850312156124ab576124aa61211c565b5b60006124b985828601612369565b92505060206124ca8582860161247f565b9150509250929050565b600080fd5b600080fd5b7f4e487b7100000000000000000000000000000000000000000000000000000000600052604160045260246000fd5b61251682612227565b810181811067ffffffffffffffff82111715612535576125346124de565b5b80604052505050565b6000612548612112565b9050612554828261250d565b919050565b600067ffffffffffffffff821115612574576125736124de565b5b61257d82612227565b9050602081019050919050565b82818337600083830152505050565b60006125ac6125a784612559565b61253e565b9050828152602081018484840111156125c8576125c76124d9565b5b6125d384828561258a565b509392505050565b600082601f8301126125f0576125ef6124d4565b5b8135612600848260208601612599565b91505092915050565b600080600080608085870312156126235761262261211c565b5b600061263187828801612369565b945050602061264287828801612369565b9350506040612653878288016122b4565b925050606085013567ffffffffffffffff81111561267457612673612121565b5b612680878288016125db565b91505092959194509250565b600080604083850312156126a3576126a261211c565b5b60006126b185828601612369565b92505060206126c285828601612369565b9150509250929050565b600067ffffffffffffffff8211156126e7576126e66124de565b5b6126f082612227565b9050602081019050919050565b600061271061270b846126cc565b61253e565b90508281526020810184848401111561272c5761272b6124d9565b5b61273784828561258a565b509392505050565b600082601f830112612754576127536124d4565b5b81356127648482602086016126fd565b91505092915050565b600080604083850312156127845761278361211c565b5b600061279285828601612369565b925050602083013567ffffffffffffffff8111156127b3576127b2612121565b5b6127bf8582860161273f565b9150509250929050565b7f4e487b7100000000000000000000000000000000000000000000000000000000600052602260045260246000fd5b6000600282049050600182168061281057607f821691505b602082108103612823576128226127c9565b5b50919050565b7f4552433732313a20617070726f76616c20746f2063757272656e74206f776e6560008201527f7200000000000000000000000000000000000000000000000000000000000000602082015250565b60006128856021836121ec565b915061289082612829565b604082019050919050565b600060208201905081810360008301526128b481612878565b9050919050565b7f4552433732313a20617070726f76652063616c6c6572206973206e6f7420746f60008201527f6b656e206f776e6572206f7220617070726f76656420666f7220616c6c000000602082015250565b6000612917603d836121ec565b9150612922826128bb565b604082019050919050565b600060208201905081810360008301526129468161290a565b9050919050565b7f4552433732313a2063616c6c6572206973206e6f7420746f6b656e206f776e6560008201527f72206f7220617070726f76656400000000000000000000000000000000000000602082015250565b60006129a9602d836121ec565b91506129b48261294d565b604082019050919050565b600060208201905081810360008301526129d88161299c565b9050919050565b7f455243373231456e756d657261626c653a206f776e657220696e646578206f7560008201527f74206f6620626f756e6473000000000000000000000000000000000000000000602082015250565b6000612a3b602b836121ec565b9150612a46826129df565b604082019050919050565b60006020820190508181036000830152612a6a81612a2e565b9050919050565b7f455243373231456e756d657261626c653a20676c6f62616c20696e646578206f60008201527f7574206f6620626f756e64730000000000000000000000000000000000000000602082015250565b6000612acd602c836121ec565b9150612ad882612a71565b604082019050919050565b60006020820190508181036000830152612afc81612ac0565b9050919050565b7f4e487b7100000000000000000000000000000000000000000000000000000000600052603260045260246000fd5b7f4552433732313a20696e76616c696420746f6b656e2049440000000000000000600082015250565b6000612b686018836121ec565b9150612b7382612b32565b602082019050919050565b60006020820190508181036000830152612b9781612b5b565b9050919050565b7f4552433732313a2061646472657373207a65726f206973206e6f74206120766160008201527f6c6964206f776e65720000000000000000000000000000000000000000000000602082015250565b6000612bfa6029836121ec565b9150612c0582612b9e565b604082019050919050565b60006020820190508181036000830152612c2981612bed565b9050919050565b7f4552524f523a4e6f7420416e2041646d696e0000000000000000000000000000600082015250565b6000612c666012836121ec565b9150612c7182612c30565b602082019050919050565b60006020820190508181036000830152612c9581612c59565b9050919050565b7f4552433732313a207472616e736665722066726f6d20696e636f72726563742060008201527f6f776e6572000000000000000000000000000000000000000000000000000000602082015250565b6000612cf86025836121ec565b9150612d0382612c9c565b604082019050919050565b60006020820190508181036000830152612d2781612ceb565b9050919050565b7f4552433732313a207472616e7366657220746f20746865207a65726f2061646460008201527f7265737300000000000000000000000000000000000000000000000000000000602082015250565b6000612d8a6024836121ec565b9150612d9582612d2e565b604082019050919050565b60006020820190508181036000830152612db981612d7d565b9050919050565b7f4552433732313a20617070726f766520746f2063616c6c657200000000000000600082015250565b6000612df66019836121ec565b9150612e0182612dc0565b602082019050919050565b60006020820190508181036000830152612e2581612de9565b9050919050565b7f4552433732313a207472616e7366657220746f206e6f6e20455243373231526560008201527f63656976657220696d706c656d656e7465720000000000000000000000000000602082015250565b6000612e886032836121ec565b9150612e9382612e2c565b604082019050919050565b60006020820190508181036000830152612eb781612e7b565b9050919050565b600081905092915050565b6000612ed4826121e1565b612ede8185612ebe565b9350612eee8185602086016121fd565b80840191505092915050565b6000612f068285612ec9565b9150612f128284612ec9565b91508190509392505050565b7f45524337323155524953746f726167653a2055524920736574206f66206e6f6e60008201527f6578697374656e7420746f6b656e000000000000000000000000000000000000602082015250565b6000612f7a602e836121ec565b9150612f8582612f1e565b604082019050919050565b60006020820190508181036000830152612fa981612f6d565b9050919050565b60008190508160005260206000209050919050565b60006020601f8301049050919050565b600082821b905092915050565b6000600883026130127fffffffffffffffffffffffffffffffffffffffffffffffffffffffffffffffff82612fd5565b61301c8683612fd5565b95508019841693508086168417925050509392505050565b6000819050919050565b600061305961305461304f84612293565b613034565b612293565b9050919050565b6000819050919050565b6130738361303e565b61308761307f82613060565b848454612fe2565b825550505050565b600090565b61309c61308f565b6130a781848461306a565b505050565b5b818110156130cb576130c0600082613094565b6001810190506130ad565b5050565b601f821115613110576130e181612fb0565b6130ea84612fc5565b810160208510156130f9578190505b61310d61310585612fc5565b8301826130ac565b50505b505050565b600082821c905092915050565b600061313360001984600802613115565b1980831691505092915050565b600061314c8383613122565b9150826002028217905092915050565b613165826121e1565b67ffffffffffffffff81111561317e5761317d6124de565b5b61318882546127f8565b6131938282856130cf565b600060209050601f8311600181146131c657600084156131b4578287015190505b6131be8582613140565b865550613226565b601f1984166131d486612fb0565b60005b828110156131fc578489015182556001820191506020850194506020810190506131d7565b868310156132195784890151613215601f891682613122565b8355505b6001600288020188555050505b505050505050565b600081519050919050565b600082825260208201905092915050565b60006132558261322e565b61325f8185613239565b935061326f8185602086016121fd565b61327881612227565b840191505092915050565b60006080820190506132986000830187612328565b6132a56020830186612328565b6132b260408301856123be565b81810360608301526132c4818461324a565b905095945050505050565b6000815190506132de81612152565b92915050565b6000602082840312156132fa576132f961211c565b5b6000613308848285016132cf565b91505092915050565b7f455243373231456e756d657261626c653a20636f6e736563757469766520747260008201527f616e7366657273206e6f7420737570706f727465640000000000000000000000602082015250565b600061336d6035836121ec565b915061337882613311565b604082019050919050565b6000602082019050818103600083015261339c81613360565b9050919050565b7f4e487b7100000000000000000000000000000000000000000000000000000000600052601260045260246000fd5b7f4552433732313a206d696e7420746f20746865207a65726f2061646472657373600082015250565b60006134086020836121ec565b9150613413826133d2565b602082019050919050565b60006020820190508181036000830152613437816133fb565b9050919050565b7f4552433732313a20746f6b656e20616c7265616479206d696e74656400000000600082015250565b6000613474601c836121ec565b915061347f8261343e565b602082019050919050565b600060208201905081810360008301526134a381613467565b9050919050565b7f4e487b7100000000000000000000000000000000000000000000000000000000600052601160045260246000fd5b60006134e482612293565b91506134ef83612293565b9250828203905081811115613507576135066134aa565b5b92915050565b7f4e487b7100000000000000000000000000000000000000000000000000000000600052603160045260246000fdfea2646970667358221220b0d1e5dc60327cb4c955722ee655fd427496128c421d12a93f22e86d38332c2864736f6c63430008120033",
	"linkReferences": {},
	"deployedLinkReferences": {}
}